{
  "_format": "hh-sol-artifact-1",
  "contractName": "EIP712Referral",
  "sourceName": "contracts/EIP712Referral.sol",
  "abi": [
    {
      "inputs": [
        {
          "internalType": "uint256",
          "name": "_maxReferralAmount",
          "type": "uint256"
        },
        {
          "internalType": "uint256",
          "name": "_referralExpiration",
          "type": "uint256"
        }
      ],
      "stateMutability": "nonpayable",
      "type": "constructor"
    },
    {
      "anonymous": false,
      "inputs": [
        {
          "indexed": true,
          "internalType": "address",
          "name": "previousOwner",
          "type": "address"
        },
        {
          "indexed": true,
          "internalType": "address",
          "name": "newOwner",
          "type": "address"
        }
      ],
      "name": "OwnershipTransferred",
      "type": "event"
    },
    {
      "anonymous": false,
      "inputs": [
        {
          "indexed": false,
          "internalType": "address",
          "name": "creator",
          "type": "address"
        },
        {
          "indexed": true,
          "internalType": "address",
          "name": "referrer",
          "type": "address"
        },
        {
          "indexed": false,
          "internalType": "uint256",
          "name": "timestamp",
          "type": "uint256"
        }
      ],
      "name": "ReferralSubmited",
      "type": "event"
    },
    {
      "inputs": [],
      "name": "DOMAIN_SEPARATOR",
      "outputs": [
        {
          "internalType": "bytes32",
          "name": "",
          "type": "bytes32"
        }
      ],
      "stateMutability": "view",
      "type": "function"
    },
    {
      "inputs": [],
      "name": "REFERRAL_TYPEHASH",
      "outputs": [
        {
          "internalType": "bytes32",
          "name": "",
          "type": "bytes32"
        }
      ],
      "stateMutability": "view",
      "type": "function"
    },
    {
      "inputs": [],
      "name": "getMaxReferralAmount",
      "outputs": [
        {
          "internalType": "uint256",
          "name": "",
          "type": "uint256"
        }
      ],
      "stateMutability": "view",
      "type": "function"
    },
    {
      "inputs": [],
      "name": "getReferralExpiration",
      "outputs": [
        {
          "internalType": "uint256",
          "name": "",
          "type": "uint256"
        }
      ],
      "stateMutability": "view",
      "type": "function"
    },
    {
      "inputs": [],
      "name": "getTimestamp",
      "outputs": [
        {
          "internalType": "uint256",
          "name": "",
          "type": "uint256"
        }
      ],
      "stateMutability": "view",
      "type": "function"
    },
    {
      "inputs": [],
      "name": "getTotalValidAddresses",
      "outputs": [
        {
          "internalType": "uint256",
          "name": "",
          "type": "uint256"
        }
      ],
      "stateMutability": "view",
      "type": "function"
    },
    {
      "inputs": [
        {
          "internalType": "address",
          "name": "_address",
          "type": "address"
        }
      ],
      "name": "getValidReferrals",
      "outputs": [
        {
          "internalType": "uint256",
          "name": "",
          "type": "uint256"
        }
      ],
      "stateMutability": "view",
      "type": "function"
    },
    {
      "inputs": [
        {
          "internalType": "address",
          "name": "_address",
          "type": "address"
        }
      ],
      "name": "isValidReferrer",
      "outputs": [
        {
          "internalType": "bool",
          "name": "",
          "type": "bool"
        }
      ],
      "stateMutability": "view",
      "type": "function"
    },
    {
      "inputs": [],
      "name": "owner",
      "outputs": [
        {
          "internalType": "address",
          "name": "",
          "type": "address"
        }
      ],
      "stateMutability": "view",
      "type": "function"
    },
    {
      "inputs": [],
      "name": "renounceOwnership",
      "outputs": [],
      "stateMutability": "nonpayable",
      "type": "function"
    },
    {
      "inputs": [
        {
          "internalType": "address[]",
          "name": "_addresses",
          "type": "address[]"
        }
      ],
      "name": "setReferrerValid",
      "outputs": [],
      "stateMutability": "nonpayable",
      "type": "function"
    },
    {
      "inputs": [
        {
          "components": [
            {
              "internalType": "address",
              "name": "referrer",
              "type": "address"
            },
            {
              "internalType": "address",
              "name": "referree",
              "type": "address"
            },
            {
              "internalType": "uint256",
              "name": "timestamp",
              "type": "uint256"
            }
          ],
          "internalType": "struct EIP712Referral.Referral",
          "name": "_referral",
          "type": "tuple"
        },
        {
          "internalType": "bytes",
          "name": "_signature",
          "type": "bytes"
        }
      ],
      "name": "submitReferral",
      "outputs": [
        {
          "internalType": "bool",
          "name": "",
          "type": "bool"
        }
      ],
      "stateMutability": "nonpayable",
      "type": "function"
    },
    {
      "inputs": [
        {
          "internalType": "address",
          "name": "newOwner",
          "type": "address"
        }
      ],
      "name": "transferOwnership",
      "outputs": [],
      "stateMutability": "nonpayable",
      "type": "function"
    }
  ],
  "bytecode": "0x60806040523480156200001157600080fd5b50604051620022e1380380620022e1833981810160405281019062000037919062000277565b620000576200004b6200019460201b60201c565b6200019c60201b60201c565b6001600460003373ffffffffffffffffffffffffffffffffffffffff1673ffffffffffffffffffffffffffffffffffffffff16815260200190815260200160002060006101000a81548160ff02191690831515021790555081600281905550806003819055507f8b73c3c69bb8fe3d512ecc4cf759cc79239f7b179b0ffacaa9a75d522b39400f6040518060400160405280600881526020017f526566657272616c000000000000000000000000000000000000000000000000815250805190602001206040518060400160405280600181526020017f310000000000000000000000000000000000000000000000000000000000000081525080519060200120463060405160200162000170959493929190620002eb565b604051602081830303815290604052805190602001206006819055505050620003aa565b600033905090565b60008060009054906101000a900473ffffffffffffffffffffffffffffffffffffffff169050816000806101000a81548173ffffffffffffffffffffffffffffffffffffffff021916908373ffffffffffffffffffffffffffffffffffffffff1602179055508173ffffffffffffffffffffffffffffffffffffffff168173ffffffffffffffffffffffffffffffffffffffff167f8be0079c531659141344cd1fd0a4f28419497f9722a3daafe3b4186f6b6457e060405160405180910390a35050565b600081519050620002718162000390565b92915050565b600080604083850312156200028b57600080fd5b60006200029b8582860162000260565b9250506020620002ae8582860162000260565b9150509250929050565b620002c38162000348565b82525050565b620002d4816200035c565b82525050565b620002e58162000386565b82525050565b600060a082019050620003026000830188620002c9565b620003116020830187620002c9565b620003206040830186620002c9565b6200032f6060830185620002da565b6200033e6080830184620002b8565b9695505050505050565b6000620003558262000366565b9050919050565b6000819050919050565b600073ffffffffffffffffffffffffffffffffffffffff82169050919050565b6000819050919050565b6200039b8162000386565b8114620003a757600080fd5b50565b611f2780620003ba6000396000f3fe608060405234801561001057600080fd5b50600436106100cf5760003560e01c80638da5cb5b1161008c578063aad656e811610066578063aad656e8146101f0578063d52f199f1461020e578063f2fde38b1461023e578063fc31b7a41461025a576100cf565b80638da5cb5b146101985780639867f3cb146101b65780639a39a424146101d2576100cf565b80630fa75ed2146100d4578063188ec356146100f257806323ae4c45146101105780633644e515146101405780635203028d1461015e578063715018a61461018e575b600080fd5b6100dc610278565b6040516100e99190611a27565b60405180910390f35b6100fa610282565b6040516101079190611a27565b60405180910390f35b61012a60048036038101906101259190611454565b61028a565b6040516101379190611a27565b60405180910390f35b61014861031e565b6040516101559190611802565b60405180910390f35b610178600480360381019061017391906114c2565b610324565b60405161018591906117e7565b60405180910390f35b610196610747565b005b6101a06107cf565b6040516101ad91906117a3565b60405180910390f35b6101d060048036038101906101cb919061147d565b6107f8565b005b6101da61093c565b6040516101e79190611802565b60405180910390f35b6101f8610960565b6040516102059190611a27565b60405180910390f35b61022860048036038101906102239190611454565b61096a565b60405161023591906117e7565b60405180910390f35b61025860048036038101906102539190611454565b610a0f565b005b610262610b07565b60405161026f9190611a27565b60405180910390f35b6000600354905090565b600042905090565b600061029582610b11565b6102d4576040517f08c379a00000000000000000000000000000000000000000000000000000000081526004016102cb906119a7565b60405180910390fd5b600560008373ffffffffffffffffffffffffffffffffffffffff1673ffffffffffffffffffffffffffffffffffffffff168152602001908152602001600020805490509050919050565b60065481565b60006004600085600001602081019061033d9190611454565b73ffffffffffffffffffffffffffffffffffffffff1673ffffffffffffffffffffffffffffffffffffffff16815260200190815260200160002060009054906101000a900460ff166103c4576040517f08c379a00000000000000000000000000000000000000000000000000000000081526004016103bb90611987565b60405180910390fd5b600460003373ffffffffffffffffffffffffffffffffffffffff1673ffffffffffffffffffffffffffffffffffffffff16815260200190815260200160002060009054906101000a900460ff1615610451576040517f08c379a000000000000000000000000000000000000000000000000000000000815260040161044890611967565b60405180910390fd5b6002546005600086600001602081019061046b9190611454565b73ffffffffffffffffffffffffffffffffffffffff1673ffffffffffffffffffffffffffffffffffffffff16815260200190815260200160002080549050106104e9576040517f08c379a00000000000000000000000000000000000000000000000000000000081526004016104e0906119c7565b60405180910390fd5b60006006547f499a7c599c9e20ab5d169369408d42de06e9cc4472856081b488319c2c48af6e8660000160208101906105229190611454565b8760200160208101906105359190611454565b886040013560405160200161054d949392919061181d565b6040516020818303038152906040528051906020012060405160200161057492919061176c565b60405160208183030381529060405280519060200120905060006105e585858080601f016020809104026020016040519081016040528093929190818152602001838380828437600081840152601f19601f8201169050808301925050505050505083610b6790919063ffffffff16565b90508560000160208101906105fa9190611454565b73ffffffffffffffffffffffffffffffffffffffff168173ffffffffffffffffffffffffffffffffffffffff1614610667576040517f08c379a000000000000000000000000000000000000000000000000000000000815260040161065e90611947565b60405180910390fd5b600354426106759190611ad9565b8660400135116106ba576040517f08c379a00000000000000000000000000000000000000000000000000000000081526004016106b190611907565b60405180910390fd5b6106d433878036038101906106cf919061151a565b610b8e565b8560000160208101906106e79190611454565b73ffffffffffffffffffffffffffffffffffffffff167f64a9c020b44047c1b9ef717f0284e2b925a91753d5619bab1be0b4522315cc253388604001356040516107329291906117be565b60405180910390a26001925050509392505050565b61074f610d02565b73ffffffffffffffffffffffffffffffffffffffff1661076d6107cf565b73ffffffffffffffffffffffffffffffffffffffff16146107c3576040517f08c379a00000000000000000000000000000000000000000000000000000000081526004016107ba90611a07565b60405180910390fd5b6107cd6000610d0a565b565b60008060009054906101000a900473ffffffffffffffffffffffffffffffffffffffff16905090565b610800610d02565b73ffffffffffffffffffffffffffffffffffffffff1661081e6107cf565b73ffffffffffffffffffffffffffffffffffffffff1614610874576040517f08c379a000000000000000000000000000000000000000000000000000000000815260040161086b90611a07565b60405180910390fd5b60005b82829050811015610937576001600460008585858181106108c1577f4e487b7100000000000000000000000000000000000000000000000000000000600052603260045260246000fd5b90506020020160208101906108d69190611454565b73ffffffffffffffffffffffffffffffffffffffff1673ffffffffffffffffffffffffffffffffffffffff16815260200190815260200160002060006101000a81548160ff02191690831515021790555061093081610dce565b9050610877565b505050565b7f499a7c599c9e20ab5d169369408d42de06e9cc4472856081b488319c2c48af6e81565b6000600154905090565b6000600460008373ffffffffffffffffffffffffffffffffffffffff1673ffffffffffffffffffffffffffffffffffffffff16815260200190815260200160002060009054906101000a900460ff168015610a085750600254600560008473ffffffffffffffffffffffffffffffffffffffff1673ffffffffffffffffffffffffffffffffffffffff16815260200190815260200160002080549050105b9050919050565b610a17610d02565b73ffffffffffffffffffffffffffffffffffffffff16610a356107cf565b73ffffffffffffffffffffffffffffffffffffffff1614610a8b576040517f08c379a0000000000000000000000000000000000000000000000000000000008152600401610a8290611a07565b60405180910390fd5b600073ffffffffffffffffffffffffffffffffffffffff168173ffffffffffffffffffffffffffffffffffffffff161415610afb576040517f08c379a0000000000000000000000000000000000000000000000000000000008152600401610af2906118e7565b60405180910390fd5b610b0481610d0a565b50565b6000600254905090565b6000600460008373ffffffffffffffffffffffffffffffffffffffff1673ffffffffffffffffffffffffffffffffffffffff16815260200190815260200160002060009054906101000a900460ff169050919050565b6000806000610b768585610ddb565b91509150610b8381610e5e565b819250505092915050565b6001600460008473ffffffffffffffffffffffffffffffffffffffff1673ffffffffffffffffffffffffffffffffffffffff16815260200190815260200160002060006101000a81548160ff02191690831515021790555060056000826000015173ffffffffffffffffffffffffffffffffffffffff1673ffffffffffffffffffffffffffffffffffffffff16815260200190815260200160002081908060018154018082558091505060019003906000526020600020906003020160009091909190915060008201518160000160006101000a81548173ffffffffffffffffffffffffffffffffffffffff021916908373ffffffffffffffffffffffffffffffffffffffff16021790555060208201518160010160006101000a81548173ffffffffffffffffffffffffffffffffffffffff021916908373ffffffffffffffffffffffffffffffffffffffff160217905550604082015181600201555050610cf8600154610dce565b6001819055505050565b600033905090565b60008060009054906101000a900473ffffffffffffffffffffffffffffffffffffffff169050816000806101000a81548173ffffffffffffffffffffffffffffffffffffffff021916908373ffffffffffffffffffffffffffffffffffffffff1602179055508173ffffffffffffffffffffffffffffffffffffffff168173ffffffffffffffffffffffffffffffffffffffff167f8be0079c531659141344cd1fd0a4f28419497f9722a3daafe3b4186f6b6457e060405160405180910390a35050565b6000600182019050919050565b600080604183511415610e1d5760008060006020860151925060408601519150606086015160001a9050610e11878285856111af565b94509450505050610e57565b604083511415610e4e576000806020850151915060408501519050610e438683836112bc565b935093505050610e57565b60006002915091505b9250929050565b60006004811115610e98577f4e487b7100000000000000000000000000000000000000000000000000000000600052602160045260246000fd5b816004811115610ed1577f4e487b7100000000000000000000000000000000000000000000000000000000600052602160045260246000fd5b1415610edc576111ac565b60016004811115610f16577f4e487b7100000000000000000000000000000000000000000000000000000000600052602160045260246000fd5b816004811115610f4f577f4e487b7100000000000000000000000000000000000000000000000000000000600052602160045260246000fd5b1415610f90576040517f08c379a0000000000000000000000000000000000000000000000000000000008152600401610f87906118a7565b60405180910390fd5b60026004811115610fca577f4e487b7100000000000000000000000000000000000000000000000000000000600052602160045260246000fd5b816004811115611003577f4e487b7100000000000000000000000000000000000000000000000000000000600052602160045260246000fd5b1415611044576040517f08c379a000000000000000000000000000000000000000000000000000000000815260040161103b906118c7565b60405180910390fd5b6003600481111561107e577f4e487b7100000000000000000000000000000000000000000000000000000000600052602160045260246000fd5b8160048111156110b7577f4e487b7100000000000000000000000000000000000000000000000000000000600052602160045260246000fd5b14156110f8576040517f08c379a00000000000000000000000000000000000000000000000000000000081526004016110ef90611927565b60405180910390fd5b600480811115611131577f4e487b7100000000000000000000000000000000000000000000000000000000600052602160045260246000fd5b81600481111561116a577f4e487b7100000000000000000000000000000000000000000000000000000000600052602160045260246000fd5b14156111ab576040517f08c379a00000000000000000000000000000000000000000000000000000000081526004016111a2906119e7565b60405180910390fd5b5b50565b6000807f7fffffffffffffffffffffffffffffff5d576e7357a4501ddfe92f46681b20a08360001c11156111ea5760006003915091506112b3565b601b8560ff16141580156112025750601c8560ff1614155b156112145760006004915091506112b3565b6000600187878787604051600081526020016040526040516112399493929190611862565b6020604051602081039080840390855afa15801561125b573d6000803e3d6000fd5b505050602060405103519050600073ffffffffffffffffffffffffffffffffffffffff168173ffffffffffffffffffffffffffffffffffffffff1614156112aa576000600192509250506112b3565b80600092509250505b94509492505050565b60008060007f7fffffffffffffffffffffffffffffffffffffffffffffffffffffffffffffff60001b841690506000601b60ff8660001c901c6112ff9190611a83565b905061130d878288856111af565b935093505050935093915050565b60008135905061132a81611ec3565b92915050565b60008083601f84011261134257600080fd5b8235905067ffffffffffffffff81111561135b57600080fd5b60208301915083602082028301111561137357600080fd5b9250929050565b60008083601f84011261138c57600080fd5b8235905067ffffffffffffffff8111156113a557600080fd5b6020830191508360018202830111156113bd57600080fd5b9250929050565b6000606082840312156113d657600080fd5b81905092915050565b6000606082840312156113f157600080fd5b6113fb6060611a42565b9050600061140b8482850161131b565b600083015250602061141f8482850161131b565b60208301525060406114338482850161143f565b60408301525092915050565b60008135905061144e81611eda565b92915050565b60006020828403121561146657600080fd5b60006114748482850161131b565b91505092915050565b6000806020838503121561149057600080fd5b600083013567ffffffffffffffff8111156114aa57600080fd5b6114b685828601611330565b92509250509250929050565b6000806000608084860312156114d757600080fd5b60006114e5868287016113c4565b935050606084013567ffffffffffffffff81111561150257600080fd5b61150e8682870161137a565b92509250509250925092565b60006060828403121561152c57600080fd5b600061153a848285016113df565b91505092915050565b61154c81611b0d565b82525050565b61155b81611b1f565b82525050565b61156a81611b2b565b82525050565b61158161157c82611b2b565b611b9d565b82525050565b6000611594601883611a67565b915061159f82611c16565b602082019050919050565b60006115b7601f83611a67565b91506115c282611c3f565b602082019050919050565b60006115da602683611a67565b91506115e582611c68565b604082019050919050565b60006115fd601583611a67565b915061160882611cb7565b602082019050919050565b6000611620600283611a78565b915061162b82611ce0565b600282019050919050565b6000611643602283611a67565b915061164e82611d09565b604082019050919050565b6000611666601683611a67565b915061167182611d58565b602082019050919050565b6000611689601a83611a67565b915061169482611d81565b602082019050919050565b60006116ac601583611a67565b91506116b782611daa565b602082019050919050565b60006116cf601983611a67565b91506116da82611dd3565b602082019050919050565b60006116f2602883611a67565b91506116fd82611dfc565b604082019050919050565b6000611715602283611a67565b915061172082611e4b565b604082019050919050565b6000611738602083611a67565b915061174382611e9a565b602082019050919050565b61175781611b55565b82525050565b61176681611b5f565b82525050565b600061177782611613565b91506117838285611570565b6020820191506117938284611570565b6020820191508190509392505050565b60006020820190506117b86000830184611543565b92915050565b60006040820190506117d36000830185611543565b6117e0602083018461174e565b9392505050565b60006020820190506117fc6000830184611552565b92915050565b60006020820190506118176000830184611561565b92915050565b60006080820190506118326000830187611561565b61183f6020830186611543565b61184c6040830185611543565b611859606083018461174e565b95945050505050565b60006080820190506118776000830187611561565b611884602083018661175d565b6118916040830185611561565b61189e6060830184611561565b95945050505050565b600060208201905081810360008301526118c081611587565b9050919050565b600060208201905081810360008301526118e0816115aa565b9050919050565b60006020820190508181036000830152611900816115cd565b9050919050565b60006020820190508181036000830152611920816115f0565b9050919050565b6000602082019050818103600083015261194081611636565b9050919050565b6000602082019050818103600083015261196081611659565b9050919050565b600060208201905081810360008301526119808161167c565b9050919050565b600060208201905081810360008301526119a08161169f565b9050919050565b600060208201905081810360008301526119c0816116c2565b9050919050565b600060208201905081810360008301526119e0816116e5565b9050919050565b60006020820190508181036000830152611a0081611708565b9050919050565b60006020820190508181036000830152611a208161172b565b9050919050565b6000602082019050611a3c600083018461174e565b92915050565b6000611a4c611a5d565b9050611a588282611b6c565b919050565b6000604051905090565b600082825260208201905092915050565b600081905092915050565b6000611a8e82611b55565b9150611a9983611b55565b9250827fffffffffffffffffffffffffffffffffffffffffffffffffffffffffffffffff03821115611ace57611acd611ba7565b5b828201905092915050565b6000611ae482611b55565b9150611aef83611b55565b925082821015611b0257611b01611ba7565b5b828203905092915050565b6000611b1882611b35565b9050919050565b60008115159050919050565b6000819050919050565b600073ffffffffffffffffffffffffffffffffffffffff82169050919050565b6000819050919050565b600060ff82169050919050565b611b7582611c05565b810181811067ffffffffffffffff82111715611b9457611b93611bd6565b5b80604052505050565b6000819050919050565b7f4e487b7100000000000000000000000000000000000000000000000000000000600052601160045260246000fd5b7f4e487b7100000000000000000000000000000000000000000000000000000000600052604160045260246000fd5b6000601f19601f8301169050919050565b7f45434453413a20696e76616c6964207369676e61747572650000000000000000600082015250565b7f45434453413a20696e76616c6964207369676e6174757265206c656e67746800600082015250565b7f4f776e61626c653a206e6577206f776e657220697320746865207a65726f206160008201527f6464726573730000000000000000000000000000000000000000000000000000602082015250565b7f526566657272616c206973206e6f742076616c69640000000000000000000000600082015250565b7f1901000000000000000000000000000000000000000000000000000000000000600082015250565b7f45434453413a20696e76616c6964207369676e6174757265202773272076616c60008201527f7565000000000000000000000000000000000000000000000000000000000000602082015250565b7f5369676e6174757265206973206e6f742076616c696400000000000000000000600082015250565b7f596f752061726520616c72656164792061207265666572726565000000000000600082015250565b7f5265666572726572206973206e6f742076616c69640000000000000000000000600082015250565b7f41646472657373206973206e6f74206120726566657272657200000000000000600082015250565b7f5265666572726572206861732072656163686564206d6178207265666572726160008201527f6c20616d6f756e74000000000000000000000000000000000000000000000000602082015250565b7f45434453413a20696e76616c6964207369676e6174757265202776272076616c60008201527f7565000000000000000000000000000000000000000000000000000000000000602082015250565b7f4f776e61626c653a2063616c6c6572206973206e6f7420746865206f776e6572600082015250565b611ecc81611b0d565b8114611ed757600080fd5b50565b611ee381611b55565b8114611eee57600080fd5b5056fea26469706673582212202b22143228bedcb87598e2b9cd379cae6ca0a80f6c754f0d88ce173ad824b70264736f6c63430008040033",
  "linkReferences": {},
  "deployedLinkReferences": {}
}